:02000000C72B0C
:100006007B15FB1F0D280130F300F201F101F00111
:08001600FA0DF20CFF300800A6
:08001E00FA1FF2130030080084
:10002600FB14FB1F1D28FF30F300F200F100F00067
:08003600FA0DF20CFF30080086
:0E003E00F201F101F001F801F30100300800B9
:10004C007C185C28FC182D287C197B282628A001FC
:10005C007208031D4D287108F2007008F100780831
:10006C00F000F801A0157208031D4D287108F2006C
:10007C007008F100F001A01120167208031D4D2824
:10008C007108F200F101A015720803196F282008FD
:10009C00F302031D031C73280310F21B5C28F80DDC
:1000AC00F00DF10DF20DF30B532873287B1B701C14
:1000BC007728F81F7728F00A0319F10A0319F20AB6
:1000CC00031D7728F20CF10CF00CF30A03197B28B2
:1000DC0077280130FC001F207E280230FC00032012
:1000EC007E280430FC000F207E280830FC001320F2
:0400FC0000000800F8
:10010000A0017208031D95287108F2007008F10023
:10011000F001A0157208031D95287108F200F10185
:10012000A011201672080319A3282008F302031D4A
:10013000031CA7280310F21BAB28F00DF10DF20DE4
:10014000F30B9B28A7280130FC001F20AE280230AB
:0E015000FC000320AE280430FC000F20080045
:10015E007B14FB1FBA28F201FA1FFF30F200F100E8
:0A016E00F000FA0DF20CFF3008005B
:1001780083120313FB01FA01F9018030F800F10C36
:10018800F00C031CD0287408F90775080318750FBC
:10019800FA070318FB0A0310F01FD8287408FA0797
:1001A80075080318750FFB07FB0CFA0CF90CF80C13
:1001B800031CC3287B08F3007A08F2007908F100D1
:0601C8007808F0000800B9
:1001CE008312031372087606A000F801F901730872
:1001DE007702031C0A297708FD007308F7007D08D3
:1001EE00F3007608FD007208F6007D08F20075082F
:1001FE00FD007108F5007D08F1007408FD0070081F
:10020E00F4007D08F0007708031983297208FA00BC
:10021E00F217F61777087302F70003193D29083015
:10022E007702031C3329F7007408F9007508F400EF
:10023E007608F500F60108307702031C3329F70023
:10024E007408F9007508F400F50108307702031CF4
:10025E0033297A08F2008329770803193D29031000
:10026E00F60CF50CF40CF90CF70B3629A01F4A29E5
:10027E00F909F409F509F609F90A0319F40A03193B
:10028E00F50A0319F60A7908F80774080318740FAB
:10029E00F00775080318750FF10776080318760F27
:1002AE00F207A01B6329031C7329F20CF10CF00C4E
:1002BE00F80CF30F73297F2903187729F809F00931
:1002CE00F109F209F80A0319F00A0319F10A0319E0
:1002DE00F20A8030FA067B290130FC00262085299F
:1002EE000230FC00262085290430FC008020852960
:1002FE000830FC00132085290030FC0000000800A7
:0C030E0007308312FD00FD0B8A29080057
:06031A00FB15FF30080096
:1003200083120313FA017308031D7A147708031D5F
:10033000FA147A080319DC29033A0319A7297A1851
:10034000A429F61FDA29D829F21FD829DA29720838
:100350008039FA00F21376088039F6137A06031909
:10036000B5297A080319D829DA29770873020319FD
:10037000BC29031CD029D429760872020319C32989
:10038000031CD029D429750871020319CA29031C3A
:10039000D029D429740870020319DC290318D42940
:1003A000FA080319DA29D829FA080319D829DA2909
:1003B00003140800031008000314031508000800C4
:1003C00083120313FB01FC01FA01730803190D2AC0
:1003D000FA13F2178630F302F31BF1290319F129FE
:1003E0000F2AF309F30A08307302031CFE29F300F5
:1003F000F20DF2017308031D0310052A7308031997
:10040000052A0310F20CF30B012A7B1B721C0D2A28
:10041000031C0D2AF20A0319142AF101172A7B146E
:10042000FB1F1A2AF1011A2A0130FC001C2A003095
:10043000FC001C2AFF30FC00FC080319202AAF2016
:060440007208F000080044
:0C044600831203138030F606E720080044
:1004520083161208013EF00000300318013EF1003D
:1004620083123D08F400F501BC200630F20070084A
:10047200F4007108F50072080319442AF50CF40C13
:10048200F513FF3E3D2A0430F1007408F0007108B4
:1004920003194F2AF00D7010FF3E492A30307005C3
:1004A200F3007408F0007508F100F10CF00CF11380
:1004B200F10CF00CF113700893000F3095057308DE
:0404C2009504080095
:1004C60083127408003A031D7D2A7508003A031D3D
:1004D6007D2A7608003A031D7D2A7708003A031D17
:1004E6007D2AFF30F000FF30F1007F30F200FF3050
:1004F600F300182B83120313770803190C2B7308C8
:1005060003190F2B720876068039FA00F217F617D0
:10051600A0017208F8007108FC007008FD0074085C
:10052600FD027508031C750FFC027608031C760F86
:10053600F802F801FC01FD01031CA82A0310F20CC5
:10054600F10CF00CF80C0130A0007708F302031C44
:10055600B22A7E302007F3070318122BB72A7E3003
:100566002007F307031C152B1830FA07FD0DFC0DA9
:10057600F80DF00DF10DF20DA00D7408F0027508DE
:10058600031C750FF1027608031C760FF202760D36
:10059600A004201CD02A7D14DB2A7408F0077508F5
:1005A6000318750FF10776080318760AF2077D100F
:1005B600FA031F307A05031DB92A7B1B7D1C022B0B
:1005C6000310F00DF10DF20DA00D7408F002750880
:1005D600031C750FF1027608031C760FF202760DE6
:1005E60020040139FD070318FC0A0319F80A031D44
:1005F600022BF80CFC0CFD0CF30A0319122BFA1F44
:10060600F8137808F2007C08F1007D08F00000304D
:10061600172B01308D21172B02301F20172B04308A
:0C0626001320172B0830032000000800F0
:10063200C33083129F0540309F05F03083169F041C
:1006420083129F173D08F000F00D7010F00D70102E
:1006520070089F041F1487219F149F1C322B0000D7
:100662002E2B1F101E08F100F00183161E087004C5
:100672008312BE007108BF000030BF043E08F000C4
:060682003F08F100080032
:10068800831203137008F8007108F000F101F201F9
:10069800F301FB01FC019630F300FA017008F10048
:0C06A8007808F000F801F2018020080042
:0A06B400831293011512951208003D
:1006BE0083120313FB017308031D77080319B62B6E
:1006CE0072087606FA007708F3077E30031C732B48
:1006DE00F3020318B92B762BF302031CBC2B720802
:1006EE00F8007108FC007008FD00F817F6170310EB
:1006FE00F201F101F0011830A0007D1C902B74085E
:10070E00F00775080318750FF10776080318760FB2
:10071E00F207F20CF10CF00CF80CFC0CFD0C0310B3
:10072E00A00B842BF21BA02BF80DF00DF10DF20D8A
:10073E00F3037B1B701CB22BF81FB22BF00A0319AC
:10074E00F10A0319F20A031DB22BF20CF10CF00C94
:10075E00F30A0319B92BFA1FF2130030BE2B013026
:10076E001F20BE2B02301320BE2B043003200000AE
:02077E00080071
:0E07800083168712831212150C3095040800A0
:10078E001F30831685000130870083128501870193
:10079E0099010F3083169100803083129F007030C4
:1007AE0083169F0083121210921012149210F930B9
:1007BE00831692005A23C023051AE32B851DEA2BBC
:1007CE0087150716DC2CBD01192344237008AD00D4
:1007DE007108AE007208AF007308B0000030F4006C
:1007EE000030F5002030F6008130F7005F23003036
:1007FE00F400C030F5007F30F6008830F700632239
:10080E007008A9007108AA007208AB007308AC004A
:10081E00CD30F4004C30F5003E30F6008630F70057
:10082E005F237008F4007108F5007208F600730873
:10083E00F7006630F000C630F1006D30F2008830FF
:10084E00F30023227008B1007108B2007208B300E1
:10085E007308B4000130BD00192344237008B90099
:10086E007108BA007208BB007308BC000030F400B7
:10087E000030F5002030F6008130F7005F230030A5
:10088E00F400C030F5007F30F6008830F7006322A8
:10089E007008B5007108B6007208B7007308B8008A
:1008AE000230BD00192344237008A5007108A6006C
:1008BE007208A7007308A8000030F4000030F5009D
:1008CE002030F6008130F7005F230030F400C03096
:1008DE00F5007F30F6008830F70063227008A10023
:1008EE007108A2007208A3007308A4003508F40072
:1008FE003608F5003708F6003808F7000030F0002B
:10090E000030F1002030F2008030F3009021FF30F3
:10091E0003180030F00070080319A52C3108F00000
:10092E003208F1003308F2003408F300E0217008B9
:10093E00BD002922071107168711DC2C0712290882
:10094E00F4002A08F5002B08F6002C08F700B83042
:10095E00F0001E30F1007530F2008030F30090216F
:10096E00FF3003180030F00070080319DA2C21084C
:10097E00F4002208F5002308F6002408F7000030E2
:10098E00F0000030F1000030F2008030F3009021D2
:10099E00FF3003180030F00070080319D82C8715AB
:1009AE00D92C8711DC2C071587118230FC00DD3025
:1009BE00FD00FD0BE02CFC0BE02C00000000E32BF7
:0209CE00E72C14
:02400E00F20FAF
:00000001FF
