:02000000AC2B27
:0E000600F201F101F001F801F30100300800F1
:100014007B15FB1F14280130F300F201F101F001FC
:08002400FA0DF20CFF30080098
:08002C00FA1FF2130030080076
:10003400FB14FB1F2428FF30F300F200F100F00052
:08004400FA0DF20CFF30080078
:10004C00A0017208031D3B287108F2007008F10032
:10005C00F001A0157208031D3B287108F200F10194
:10006C00A01120167208031949282008F302031D59
:10007C00031C4D280310F21B5128F00DF10DF20D4D
:10008C00F30B41284D280130FC000320542802308A
:0E009C00FC000A2054280430FC001620080046
:1000AA007C188B28FC185C287C19AA285528A001E2
:1000BA007208031D7C287108F2007008F1007808A4
:1000CA00F000F801A0157208031D7C287108F200DF
:1000DA007008F100F001A01120167208031D7C2897
:1000EA007108F200F101A015720803199E28200870
:1000FA00F302031D031CA2280310F21B8B28F80D20
:10010A00F00DF10DF20DF30B8228A2287B1B701C57
:10011A00A628F81FA628F00A0319F10A0319F20AF9
:10012A00031DA628F20CF10CF00CF30A0319AA28F5
:10013A00A6280130FC000320AD280230FC000A206A
:10014A00AD280430FC001620AD280830FC001A2027
:04015A000000080099
:10015E007B14FB1FBA28F201FA1FFF30F200F100E8
:0A016E00F000FA0DF20CFF3008005B
:1001780083120313FB01FA01F9018030F800F10C36
:10018800F00C031CD0287408F90775080318750FBC
:10019800FA070318FB0A0310F01FD8287408FA0797
:1001A80075080318750FFB07FB0CFA0CF90CF80C13
:1001B800031CC3287B08F3007A08F2007908F100D1
:0601C8007808F0000800B9
:0C01CE0007308312FD00FD0BEA2808003A
:1001DA008312031372087606A000F801F901730866
:1001EA007702031C10297708FD007308F7007D08C1
:1001FA00F3007608FD007208F6007D08F200750823
:10020A00FD007108F5007D08F1007408FD00700812
:10021A00F4007D08F0007708031989297208FA00AA
:10022A00F217F61777087302F70003194329083003
:10023A007702031C3929F7007408F9007508F400DD
:10024A007608F500F60108307702031C3929F70011
:10025A007408F9007508F400F50108307702031CE8
:10026A0039297A08F20089297708031943290310E2
:10027A00F60CF50CF40CF90CF70B3C29A01F5029CD
:10028A00F909F409F509F609F90A0319F40A03192F
:10029A00F50A0319F60A7908F80774080318740F9F
:1002AA00F00775080318750FF10776080318760F1B
:1002BA00F207A01B6929031C7929F20CF10CF00C36
:1002CA00F80CF30F7929852903187D29F809F00913
:1002DA00F109F209F80A0319F00A0319F10A0319D4
:1002EA00F20A8030FA0681290130FC0055208B2958
:1002FA000230FC0055208B290430FC0026208B2973
:10030A000830FC001A208B290030FC00000008008D
:06031A00FB15FF30080096
:1003200083161208013EF00000300318013EF10070
:1003300083122B08F400F501BC200630F20070088F
:10034000F4007108F50072080319AB29F50CF40CE0
:10035000F513FF3EA4290430F1007408F000710881
:100360000319B629F00D7010FF3EB029303070052A
:10037000F3007408F0007508F100F10CF00CF113B3
:10038000F10CF00CF113700893000F309505730811
:0403900095040800C8
:1003940083120313FB01FC01FA0173080319F72903
:1003A400FA13F2178630F302F31BDB290319DB2956
:1003B400F929F309F30A08307302031CE829F3004E
:1003C400F20DF2017308031D0310EF2973080319DA
:1003D400EF290310F20CF30BEB297B1B721CF7299A
:1003E400031CF729F20A0319FE29F101012A7B14DF
:1003F400FB1F042AF101042A0130FC00062A003004
:10040400FC00062AFF30FC00FC0803190A2AAF206E
:060414007208F000080070
:0C041A00831203138030F606ED2008006A
:1004260083120313FB017308031D770803196A2A55
:1004360072087606FA007708F3077E30031C272A2F
:10044600F30203186D2A2A2AF302031C702A720883
:10045600F8007108FC007008FD00F817F617031085
:10046600F201F101F0011830A0007D1C442A740845
:10047600F00775080318750FF10776080318760F4D
:10048600F207F20CF10CF00CF80CFC0CFD0C03104E
:10049600A00B382AF21B542AF80DF00DF10DF20DBF
:1004A600F3037B1B701C662AF81F662AF00A0319E1
:1004B600F10A0319F20A031D662AF20CF10CF00C7C
:1004C600F30A03196D2AFA1FF2130030722A01305B
:1004D6000320722A02301A20722A04300A200000F1
:0204E60008000C
:1004E80083127408003A031D8E2A7508003A031D0A
:1004F8008E2A7608003A031D8E2A7708003A031DD3
:100508008E2AFF30F000FF30F1007F30F200FF301C
:10051800F300292B83120313770803191D2B730883
:100528000319202B720876068039FA00F217F6179D
:10053800A0017208F8007108FC007008FD0074083A
:10054800FD027508031C750FFC027608031C760F64
:10055800F802F801FC01FD01031CB92A0310F20C92
:10056800F10CF00CF80C0130A0007708F302031C22
:10057800C32A7E302007F3070318232BC82A7E30AE
:100588002007F307031C262B1830FA07FD0DFC0D76
:10059800F80DF00DF10DF20DA00D7408F0027508BC
:1005A800031C750FF1027608031C760FF202760D14
:1005B800A004201CE12A7D14EC2A7408F0077508B1
:1005C8000318750FF10776080318760AF2077D10ED
:1005D800FA031F307A05031DCA2A7B1B7D1C132BC7
:1005E8000310F00DF10DF20DA00D7408F00275085E
:1005F800031C750FF1027608031C760FF202760DC4
:1006080020040139FD070318FC0A0319F80A031D21
:10061800132BF80CFC0CFD0CF30A0319232BFA1FFF
:10062800F8137808F2007C08F1007D08F00000302B
:10063800282B01308D21282B02300320282B043051
:0C0648001A20282B08300A2000000800AF
:10065400831203132230FC00F801F901FA01FB01B3
:10066400FC030319602B0310FB0CFA0CF90CF80CB7
:10067400F30CF20CF10CF00C031C322BFC030319E9
:10068400522B7408F80775080318750FF9077608D4
:100694000318760FFA0777080318770FFB07362B32
:1006A4007408F80775080318750FF9077608031816
:0E06B400760FFA0777080318770FFB07080088
:0E06C20083168712831212150C30950408005F
:1006D000C33083129F0540309F05F03083169F047E
:1006E00083129F172B08F000F00D7010F00D7010A2
:1006F00070089F041F14E7209F149F1C812B00008B
:100700007D2B1F101E08F100F00183161E087004D7
:100710008312AC007108AD000030AD042C08F0006D
:060720002D08F1000800A5
:10072600831203137008F8007108F0007208F100D4
:100736007308F200F301FB01FC019E30F300FA019D
:080746000230FC005520080000
:0A074E0083129301151295120800A2
:1007580001308316850083129901013083169100B8
:10076800803083129F00703083169F008701FF300E
:10077800831287001210921012149210F930831607
:100788009200A7236123AB0168237008A5007108B4
:10079800A6000030F200F3000530F400F501F60180
:1007A800F7012A2393230030F400C030F5007F308E
:1007B800F6008830F70074227008A7007108A800B6
:1007C8007208A9007308AA00CD30F4004C30F50077
:1007D8003E30F6008630F70013227008F4007108E6
:1007E800F5007208F6007308F7006630F000C630AE
:1007F800F1006D30F2008830F3000D227008A1007E
:100808007108A2007208A3007308A4008230FC00DB
:10081800DD30FD00FD0B0E2CFC0B0E2C0000000043
:100828002108F0002208F1002308F2002408F30050
:0C083800CA217008AB009021C72B212CB6
:02400E00D50FCC
:00000001FF
